{
  "_format": "hh-sol-artifact-1",
  "contractName": "Marketplace",
  "sourceName": "contracts/Marketplace.sol",
  "abi": [
    {
      "inputs": [
        {
          "internalType": "uint256",
          "name": "_feePercent",
          "type": "uint256"
        }
      ],
      "stateMutability": "nonpayable",
      "type": "constructor"
    },
    {
      "anonymous": false,
      "inputs": [
        {
          "indexed": false,
          "internalType": "uint256",
          "name": "itemId",
          "type": "uint256"
        },
        {
          "indexed": true,
          "internalType": "address",
          "name": "nft",
          "type": "address"
        },
        {
          "indexed": false,
          "internalType": "uint256",
          "name": "tokenId",
          "type": "uint256"
        },
        {
          "indexed": false,
          "internalType": "uint256",
          "name": "price",
          "type": "uint256"
        },
        {
          "indexed": true,
          "internalType": "address",
          "name": "seller",
          "type": "address"
        },
        {
          "indexed": true,
          "internalType": "address",
          "name": "buyer",
          "type": "address"
        }
      ],
      "name": "Bought",
      "type": "event"
    },
    {
      "anonymous": false,
      "inputs": [],
      "name": "Cancelled",
      "type": "event"
    },
    {
      "anonymous": false,
      "inputs": [
        {
          "indexed": false,
          "internalType": "uint256",
          "name": "itemId",
          "type": "uint256"
        },
        {
          "indexed": true,
          "internalType": "address",
          "name": "nft",
          "type": "address"
        },
        {
          "indexed": false,
          "internalType": "uint256",
          "name": "tokenId",
          "type": "uint256"
        },
        {
          "indexed": false,
          "internalType": "uint256",
          "name": "price",
          "type": "uint256"
        },
        {
          "indexed": true,
          "internalType": "address",
          "name": "seller",
          "type": "address"
        }
      ],
      "name": "Offered",
      "type": "event"
    },
    {
      "inputs": [],
      "name": "feeAccount",
      "outputs": [
        {
          "internalType": "address payable",
          "name": "",
          "type": "address"
        }
      ],
      "stateMutability": "view",
      "type": "function"
    },
    {
      "inputs": [],
      "name": "feePercent",
      "outputs": [
        {
          "internalType": "uint256",
          "name": "",
          "type": "uint256"
        }
      ],
      "stateMutability": "view",
      "type": "function"
    },
    {
      "inputs": [
        {
          "internalType": "uint256",
          "name": "_itemId",
          "type": "uint256"
        }
      ],
      "name": "getTotalPrice",
      "outputs": [
        {
          "internalType": "uint256",
          "name": "",
          "type": "uint256"
        }
      ],
      "stateMutability": "view",
      "type": "function"
    },
    {
      "inputs": [],
      "name": "itemCount",
      "outputs": [
        {
          "internalType": "uint256",
          "name": "",
          "type": "uint256"
        }
      ],
      "stateMutability": "view",
      "type": "function"
    },
    {
      "inputs": [
        {
          "internalType": "uint256",
          "name": "",
          "type": "uint256"
        }
      ],
      "name": "items",
      "outputs": [
        {
          "internalType": "uint256",
          "name": "itemId",
          "type": "uint256"
        },
        {
          "internalType": "contract IERC721",
          "name": "nft",
          "type": "address"
        },
        {
          "internalType": "uint256",
          "name": "tokenId",
          "type": "uint256"
        },
        {
          "internalType": "uint256",
          "name": "price",
          "type": "uint256"
        },
        {
          "internalType": "address payable",
          "name": "seller",
          "type": "address"
        },
        {
          "internalType": "bool",
          "name": "sold",
          "type": "bool"
        }
      ],
      "stateMutability": "view",
      "type": "function"
    },
    {
      "inputs": [
        {
          "internalType": "contract IERC721",
          "name": "_nft",
          "type": "address"
        },
        {
          "internalType": "uint256",
          "name": "_tokenId",
          "type": "uint256"
        },
        {
          "internalType": "uint256",
          "name": "_price",
          "type": "uint256"
        }
      ],
      "name": "makeItem",
      "outputs": [],
      "stateMutability": "nonpayable",
      "type": "function"
    },
    {
      "inputs": [
        {
          "internalType": "uint256",
          "name": "_itemId",
          "type": "uint256"
        }
      ],
      "name": "purchaseItem",
      "outputs": [],
      "stateMutability": "payable",
      "type": "function"
    },
    {
      "inputs": [
        {
          "internalType": "uint256",
          "name": "_itemId",
          "type": "uint256"
        }
      ],
      "name": "removeItem",
      "outputs": [],
      "stateMutability": "payable",
      "type": "function"
    },
    {
      "inputs": [
        {
          "internalType": "uint256",
          "name": "_itemId",
          "type": "uint256"
        },
        {
          "internalType": "uint256",
          "name": "_new_price",
          "type": "uint256"
        }
      ],
      "name": "updateItem",
      "outputs": [],
      "stateMutability": "payable",
      "type": "function"
    }
  ],
  "bytecode": "0x60c06040523480156200001157600080fd5b50604051620016a2380380620016a283398181016040528101906200003791906200009c565b60016000819055503373ffffffffffffffffffffffffffffffffffffffff1660808173ffffffffffffffffffffffffffffffffffffffff1660601b815250508060a0818152505050620000ec565b6000815190506200009681620000d2565b92915050565b600060208284031215620000af57600080fd5b6000620000bf8482850162000085565b91505092915050565b6000819050919050565b620000dd81620000c8565b8114620000e957600080fd5b50565b60805160601c60a05161157f6200012360003960008181610491015261064b01526000818161020a015261082b015261157f6000f3fe6080604052600436106100865760003560e01c80639b6df3ed116100595780639b6df3ed14610128578063bfb231d214610144578063ca7dd37514610186578063d38ea5bf146101c3578063fa00afc7146101df57610086565b806365e17c9d1461008b5780636bfb0d01146100b657806371329171146100e15780637fd6f15c146100fd575b600080fd5b34801561009757600080fd5b506100a0610208565b6040516100ad9190610f20565b60405180910390f35b3480156100c257600080fd5b506100cb61022c565b6040516100d89190611069565b60405180910390f35b6100fb60048036038101906100f69190610d8f565b610232565b005b34801561010957600080fd5b5061011261048f565b60405161011f9190611069565b60405180910390f35b610142600480360381019061013d9190610db8565b6104b3565b005b34801561015057600080fd5b5061016b60048036038101906101669190610d8f565b6105bc565b60405161017d96959493929190611084565b60405180910390f35b34801561019257600080fd5b506101ad60048036038101906101a89190610d8f565b610645565b6040516101ba9190611069565b60405180910390f35b6101dd60048036038101906101d89190610d8f565b6106a8565b005b3480156101eb57600080fd5b5061020660048036038101906102019190610d40565b610a30565b005b7f000000000000000000000000000000000000000000000000000000000000000081565b60015481565b61023a610cbc565b600060026000838152602001908152602001600020905060008211801561026357506001548211155b6102a2576040517f08c379a000000000000000000000000000000000000000000000000000000000815260040161029990611009565b60405180910390fd5b8060040160149054906101000a900460ff16156102f4576040517f08c379a00000000000000000000000000000000000000000000000000000000081526004016102eb90610fa9565b60405180910390fd5b8060010160009054906101000a900473ffffffffffffffffffffffffffffffffffffffff1673ffffffffffffffffffffffffffffffffffffffff166323b872dd308360040160009054906101000a900473ffffffffffffffffffffffffffffffffffffffff1684600201546040518463ffffffff1660e01b815260040161037d93929190610f3b565b600060405180830381600087803b15801561039757600080fd5b505af11580156103ab573d6000803e3d6000fd5b50505050600260008381526020019081526020016000206000808201600090556001820160006101000a81549073ffffffffffffffffffffffffffffffffffffffff0219169055600282016000905560038201600090556004820160006101000a81549073ffffffffffffffffffffffffffffffffffffffff02191690556004820160146101000a81549060ff021916905550506001600081548092919061045290611308565b91905055507f63b958841f79ab97cb5456da181454b9932c0e15a3b17f1cbd27e2a8bc61043760405160405180910390a15061048c610d0c565b50565b7f000000000000000000000000000000000000000000000000000000000000000081565b6104bb610cbc565b600081116104fe576040517f08c379a00000000000000000000000000000000000000000000000000000000081526004016104f590611029565b60405180910390fd5b60006002600084815260200190815260200160002090508181600301819055503373ffffffffffffffffffffffffffffffffffffffff168160010160009054906101000a900473ffffffffffffffffffffffffffffffffffffffff1673ffffffffffffffffffffffffffffffffffffffff167f655a0cf9c8db81512be9a76dc1c5ae5380b8816ce6ad659cd61b715e2999d59a858460020154866040516105a7939291906110e5565b60405180910390a3506105b8610d0c565b5050565b60026020528060005260406000206000915090508060000154908060010160009054906101000a900473ffffffffffffffffffffffffffffffffffffffff16908060020154908060030154908060040160009054906101000a900473ffffffffffffffffffffffffffffffffffffffff16908060040160149054906101000a900460ff16905086565b600060647f00000000000000000000000000000000000000000000000000000000000000006064610676919061112d565b600260008581526020019081526020016000206003015461069791906111b4565b6106a19190611183565b9050919050565b6106b0610cbc565b60006106bb82610645565b905060006002600084815260200190815260200160002090506000831180156106e657506001548311155b610725576040517f08c379a000000000000000000000000000000000000000000000000000000000815260040161071c90611009565b60405180910390fd5b81341015610768576040517f08c379a000000000000000000000000000000000000000000000000000000000815260040161075f90610fe9565b60405180910390fd5b8060040160149054906101000a900460ff16156107ba576040517f08c379a00000000000000000000000000000000000000000000000000000000081526004016107b190610fa9565b60405180910390fd5b8060040160009054906101000a900473ffffffffffffffffffffffffffffffffffffffff1673ffffffffffffffffffffffffffffffffffffffff166108fc82600301549081150290604051600060405180830381858888f19350505050158015610828573d6000803e3d6000fd5b507f000000000000000000000000000000000000000000000000000000000000000073ffffffffffffffffffffffffffffffffffffffff166108fc826003015484610873919061120e565b9081150290604051600060405180830381858888f1935050505015801561089e573d6000803e3d6000fd5b5060018160040160146101000a81548160ff0219169083151502179055508060010160009054906101000a900473ffffffffffffffffffffffffffffffffffffffff1673ffffffffffffffffffffffffffffffffffffffff166323b872dd303384600201546040518463ffffffff1660e01b815260040161092193929190610f72565b600060405180830381600087803b15801561093b57600080fd5b505af115801561094f573d6000803e3d6000fd5b505050503373ffffffffffffffffffffffffffffffffffffffff168160040160009054906101000a900473ffffffffffffffffffffffffffffffffffffffff1673ffffffffffffffffffffffffffffffffffffffff168260010160009054906101000a900473ffffffffffffffffffffffffffffffffffffffff1673ffffffffffffffffffffffffffffffffffffffff167f8b4c9c8a607d67b321582dd8461041b1dc2ceeca70c8b7f37f8e02095cf2e76d8685600201548660030154604051610a1b939291906110e5565b60405180910390a45050610a2d610d0c565b50565b610a38610cbc565b60008111610a7b576040517f08c379a0000000000000000000000000000000000000000000000000000000008152600401610a7290610fc9565b60405180910390fd5b60016000815480929190610a8e90611332565b91905055508273ffffffffffffffffffffffffffffffffffffffff166323b872dd3330856040518463ffffffff1660e01b8152600401610ad093929190610f72565b600060405180830381600087803b158015610aea57600080fd5b505af1158015610afe573d6000803e3d6000fd5b505050506040518060c0016040528060015481526020018473ffffffffffffffffffffffffffffffffffffffff1681526020018381526020018281526020013373ffffffffffffffffffffffffffffffffffffffff168152602001600015158152506002600060015481526020019081526020016000206000820151816000015560208201518160010160006101000a81548173ffffffffffffffffffffffffffffffffffffffff021916908373ffffffffffffffffffffffffffffffffffffffff160217905550604082015181600201556060820151816003015560808201518160040160006101000a81548173ffffffffffffffffffffffffffffffffffffffff021916908373ffffffffffffffffffffffffffffffffffffffff16021790555060a08201518160040160146101000a81548160ff0219169083151502179055509050503373ffffffffffffffffffffffffffffffffffffffff168373ffffffffffffffffffffffffffffffffffffffff167f655a0cf9c8db81512be9a76dc1c5ae5380b8816ce6ad659cd61b715e2999d59a6001548585604051610ca7939291906110e5565b60405180910390a3610cb7610d0c565b505050565b60026000541415610d02576040517f08c379a0000000000000000000000000000000000000000000000000000000008152600401610cf990611049565b60405180910390fd5b6002600081905550565b6001600081905550565b600081359050610d258161151b565b92915050565b600081359050610d3a81611532565b92915050565b600080600060608486031215610d5557600080fd5b6000610d6386828701610d16565b9350506020610d7486828701610d2b565b9250506040610d8586828701610d2b565b9150509250925092565b600060208284031215610da157600080fd5b6000610daf84828501610d2b565b91505092915050565b60008060408385031215610dcb57600080fd5b6000610dd985828601610d2b565b9250506020610dea85828601610d2b565b9150509250929050565b610dfd816112ae565b82525050565b610e0c81611254565b82525050565b610e1b81611242565b82525050565b610e2a81611266565b82525050565b610e39816112c0565b82525050565b6000610e4c60118361111c565b9150610e57826113d9565b602082019050919050565b6000610e6f601f8361111c565b9150610e7a82611402565b602082019050919050565b6000610e9260338361111c565b9150610e9d8261142b565b604082019050919050565b6000610eb560128361111c565b9150610ec08261147a565b602082019050919050565b6000610ed860238361111c565b9150610ee3826114a3565b604082019050919050565b6000610efb601f8361111c565b9150610f06826114f2565b602082019050919050565b610f1a816112a4565b82525050565b6000602082019050610f356000830184610e03565b92915050565b6000606082019050610f506000830186610e12565b610f5d6020830185610df4565b610f6a6040830184610f11565b949350505050565b6000606082019050610f876000830186610e12565b610f946020830185610e12565b610fa16040830184610f11565b949350505050565b60006020820190508181036000830152610fc281610e3f565b9050919050565b60006020820190508181036000830152610fe281610e62565b9050919050565b6000602082019050818103600083015261100281610e85565b9050919050565b6000602082019050818103600083015261102281610ea8565b9050919050565b6000602082019050818103600083015261104281610ecb565b9050919050565b6000602082019050818103600083015261106281610eee565b9050919050565b600060208201905061107e6000830184610f11565b92915050565b600060c0820190506110996000830189610f11565b6110a66020830188610e30565b6110b36040830187610f11565b6110c06060830186610f11565b6110cd6080830185610e03565b6110da60a0830184610e21565b979650505050505050565b60006060820190506110fa6000830186610f11565b6111076020830185610f11565b6111146040830184610f11565b949350505050565b600082825260208201905092915050565b6000611138826112a4565b9150611143836112a4565b9250827fffffffffffffffffffffffffffffffffffffffffffffffffffffffffffffffff038211156111785761117761137b565b5b828201905092915050565b600061118e826112a4565b9150611199836112a4565b9250826111a9576111a86113aa565b5b828204905092915050565b60006111bf826112a4565b91506111ca836112a4565b9250817fffffffffffffffffffffffffffffffffffffffffffffffffffffffffffffffff04831182151516156112035761120261137b565b5b828202905092915050565b6000611219826112a4565b9150611224836112a4565b9250828210156112375761123661137b565b5b828203905092915050565b600061124d82611284565b9050919050565b600061125f82611284565b9050919050565b60008115159050919050565b600061127d82611242565b9050919050565b600073ffffffffffffffffffffffffffffffffffffffff82169050919050565b6000819050919050565b60006112b9826112e4565b9050919050565b60006112cb826112d2565b9050919050565b60006112dd82611284565b9050919050565b60006112ef826112f6565b9050919050565b600061130182611284565b9050919050565b6000611313826112a4565b915060008214156113275761132661137b565b5b600182039050919050565b600061133d826112a4565b91507fffffffffffffffffffffffffffffffffffffffffffffffffffffffffffffffff8214156113705761136f61137b565b5b600182019050919050565b7f4e487b7100000000000000000000000000000000000000000000000000000000600052601160045260246000fd5b7f4e487b7100000000000000000000000000000000000000000000000000000000600052601260045260246000fd5b7f6974656d20616c726561647920736f6c64000000000000000000000000000000600082015250565b7f5072696365206d7573742062652067726561746572207468616e207a65726f00600082015250565b7f6e6f7420656e6f75676820657468657220746f20636f766572206974656d207060008201527f7269636520616e64206d61726b65742066656500000000000000000000000000602082015250565b7f6974656d20646f65736e27742065786973740000000000000000000000000000600082015250565b7f4e6577207072696365206d7573742062652067726561746572207468616e207a60008201527f65726f0000000000000000000000000000000000000000000000000000000000602082015250565b7f5265656e7472616e637947756172643a207265656e7472616e742063616c6c00600082015250565b61152481611272565b811461152f57600080fd5b50565b61153b816112a4565b811461154657600080fd5b5056fea26469706673582212209b342e2d5083401602ad2773d15e01ee9071533aed6d618713bbcfeb1019171a64736f6c63430008040033",
  "linkReferences": {},
  "deployedLinkReferences": {}
}